{
  "_format": "hh-sol-artifact-1",
  "contractName": "VEECrowdsale",
  "sourceName": "contracts/VEECrowdsale.sol",
  "abi": [
    {
      "inputs": [
        {
          "internalType": "uint256",
          "name": "_rateICO",
          "type": "uint256"
        },
        {
          "internalType": "uint256",
          "name": "_ratePreICO",
          "type": "uint256"
        },
        {
          "internalType": "address payable",
          "name": "_storageETH",
          "type": "address"
        },
        {
          "internalType": "uint256",
          "name": "preICOStart_",
          "type": "uint256"
        },
        {
          "internalType": "uint256",
          "name": "_amountICO",
          "type": "uint256"
        },
        {
          "internalType": "uint256",
          "name": "_amountPreICO",
          "type": "uint256"
        }
      ],
      "stateMutability": "nonpayable",
      "type": "constructor"
    },
    {
      "anonymous": false,
      "inputs": [
        {
          "indexed": true,
          "internalType": "bytes32",
          "name": "role",
          "type": "bytes32"
        },
        {
          "indexed": true,
          "internalType": "bytes32",
          "name": "previousAdminRole",
          "type": "bytes32"
        },
        {
          "indexed": true,
          "internalType": "bytes32",
          "name": "newAdminRole",
          "type": "bytes32"
        }
      ],
      "name": "RoleAdminChanged",
      "type": "event"
    },
    {
      "anonymous": false,
      "inputs": [
        {
          "indexed": true,
          "internalType": "bytes32",
          "name": "role",
          "type": "bytes32"
        },
        {
          "indexed": true,
          "internalType": "address",
          "name": "account",
          "type": "address"
        },
        {
          "indexed": true,
          "internalType": "address",
          "name": "sender",
          "type": "address"
        }
      ],
      "name": "RoleGranted",
      "type": "event"
    },
    {
      "anonymous": false,
      "inputs": [
        {
          "indexed": true,
          "internalType": "bytes32",
          "name": "role",
          "type": "bytes32"
        },
        {
          "indexed": true,
          "internalType": "address",
          "name": "account",
          "type": "address"
        },
        {
          "indexed": true,
          "internalType": "address",
          "name": "sender",
          "type": "address"
        }
      ],
      "name": "RoleRevoked",
      "type": "event"
    },
    {
      "inputs": [],
      "name": "ADMIN_ROLE",
      "outputs": [
        {
          "internalType": "bytes32",
          "name": "",
          "type": "bytes32"
        }
      ],
      "stateMutability": "view",
      "type": "function"
    },
    {
      "inputs": [],
      "name": "DEFAULT_ADMIN_ROLE",
      "outputs": [
        {
          "internalType": "bytes32",
          "name": "",
          "type": "bytes32"
        }
      ],
      "stateMutability": "view",
      "type": "function"
    },
    {
      "inputs": [],
      "name": "DEPOSIT_ROLE",
      "outputs": [
        {
          "internalType": "bytes32",
          "name": "",
          "type": "bytes32"
        }
      ],
      "stateMutability": "view",
      "type": "function"
    },
    {
      "inputs": [],
      "name": "Precision",
      "outputs": [
        {
          "internalType": "uint256",
          "name": "",
          "type": "uint256"
        }
      ],
      "stateMutability": "view",
      "type": "function"
    },
    {
      "inputs": [],
      "name": "RATER_ROLE",
      "outputs": [
        {
          "internalType": "bytes32",
          "name": "",
          "type": "bytes32"
        }
      ],
      "stateMutability": "view",
      "type": "function"
    },
    {
      "inputs": [],
      "name": "RateICO",
      "outputs": [
        {
          "internalType": "uint256",
          "name": "",
          "type": "uint256"
        }
      ],
      "stateMutability": "view",
      "type": "function"
    },
    {
      "inputs": [],
      "name": "RatePreICO",
      "outputs": [
        {
          "internalType": "uint256",
          "name": "",
          "type": "uint256"
        }
      ],
      "stateMutability": "view",
      "type": "function"
    },
    {
      "inputs": [],
      "name": "TotalClaimed",
      "outputs": [
        {
          "internalType": "uint256",
          "name": "",
          "type": "uint256"
        }
      ],
      "stateMutability": "view",
      "type": "function"
    },
    {
      "inputs": [],
      "name": "VEE",
      "outputs": [
        {
          "internalType": "contract VEEToken",
          "name": "",
          "type": "address"
        }
      ],
      "stateMutability": "view",
      "type": "function"
    },
    {
      "inputs": [],
      "name": "amountICO",
      "outputs": [
        {
          "internalType": "uint256",
          "name": "",
          "type": "uint256"
        }
      ],
      "stateMutability": "view",
      "type": "function"
    },
    {
      "inputs": [],
      "name": "amountPreICO",
      "outputs": [
        {
          "internalType": "uint256",
          "name": "",
          "type": "uint256"
        }
      ],
      "stateMutability": "view",
      "type": "function"
    },
    {
      "inputs": [
        {
          "internalType": "uint256",
          "name": "_amount",
          "type": "uint256"
        }
      ],
      "name": "claim",
      "outputs": [],
      "stateMutability": "nonpayable",
      "type": "function"
    },
    {
      "inputs": [
        {
          "internalType": "address",
          "name": "_receiver",
          "type": "address"
        },
        {
          "internalType": "uint256",
          "name": "_amount",
          "type": "uint256"
        }
      ],
      "name": "deposit",
      "outputs": [],
      "stateMutability": "nonpayable",
      "type": "function"
    },
    {
      "inputs": [],
      "name": "getClaimAllowed",
      "outputs": [
        {
          "internalType": "uint256",
          "name": "claimAmount",
          "type": "uint256"
        }
      ],
      "stateMutability": "view",
      "type": "function"
    },
    {
      "inputs": [],
      "name": "getCurrentStatus",
      "outputs": [
        {
          "internalType": "enum VEECrowdsale.CrowdsaleState",
          "name": "state",
          "type": "uint8"
        }
      ],
      "stateMutability": "view",
      "type": "function"
    },
    {
      "inputs": [
        {
          "internalType": "bytes32",
          "name": "role",
          "type": "bytes32"
        }
      ],
      "name": "getRoleAdmin",
      "outputs": [
        {
          "internalType": "bytes32",
          "name": "",
          "type": "bytes32"
        }
      ],
      "stateMutability": "view",
      "type": "function"
    },
    {
      "inputs": [
        {
          "internalType": "bytes32",
          "name": "role",
          "type": "bytes32"
        },
        {
          "internalType": "uint256",
          "name": "index",
          "type": "uint256"
        }
      ],
      "name": "getRoleMember",
      "outputs": [
        {
          "internalType": "address",
          "name": "",
          "type": "address"
        }
      ],
      "stateMutability": "view",
      "type": "function"
    },
    {
      "inputs": [
        {
          "internalType": "bytes32",
          "name": "role",
          "type": "bytes32"
        }
      ],
      "name": "getRoleMemberCount",
      "outputs": [
        {
          "internalType": "uint256",
          "name": "",
          "type": "uint256"
        }
      ],
      "stateMutability": "view",
      "type": "function"
    },
    {
      "inputs": [
        {
          "internalType": "bytes32",
          "name": "role",
          "type": "bytes32"
        },
        {
          "internalType": "address",
          "name": "account",
          "type": "address"
        }
      ],
      "name": "grantRole",
      "outputs": [],
      "stateMutability": "nonpayable",
      "type": "function"
    },
    {
      "inputs": [
        {
          "internalType": "bytes32",
          "name": "role",
          "type": "bytes32"
        },
        {
          "internalType": "address",
          "name": "account",
          "type": "address"
        }
      ],
      "name": "hasRole",
      "outputs": [
        {
          "internalType": "bool",
          "name": "",
          "type": "bool"
        }
      ],
      "stateMutability": "view",
      "type": "function"
    },
    {
      "inputs": [
        {
          "internalType": "address",
          "name": "_token",
          "type": "address"
        }
      ],
      "name": "initialize",
      "outputs": [],
      "stateMutability": "nonpayable",
      "type": "function"
    },
    {
      "inputs": [],
      "name": "period_1",
      "outputs": [
        {
          "internalType": "uint256",
          "name": "",
          "type": "uint256"
        }
      ],
      "stateMutability": "view",
      "type": "function"
    },
    {
      "inputs": [],
      "name": "period_2",
      "outputs": [
        {
          "internalType": "uint256",
          "name": "",
          "type": "uint256"
        }
      ],
      "stateMutability": "view",
      "type": "function"
    },
    {
      "inputs": [],
      "name": "period_3",
      "outputs": [
        {
          "internalType": "uint256",
          "name": "",
          "type": "uint256"
        }
      ],
      "stateMutability": "view",
      "type": "function"
    },
    {
      "inputs": [],
      "name": "period_4",
      "outputs": [
        {
          "internalType": "uint256",
          "name": "",
          "type": "uint256"
        }
      ],
      "stateMutability": "view",
      "type": "function"
    },
    {
      "inputs": [
        {
          "internalType": "address",
          "name": "",
          "type": "address"
        }
      ],
      "name": "preICO",
      "outputs": [
        {
          "internalType": "uint256",
          "name": "amount",
          "type": "uint256"
        },
        {
          "internalType": "uint256",
          "name": "amountClaimed",
          "type": "uint256"
        }
      ],
      "stateMutability": "view",
      "type": "function"
    },
    {
      "inputs": [],
      "name": "preICOEnd",
      "outputs": [
        {
          "internalType": "uint256",
          "name": "",
          "type": "uint256"
        }
      ],
      "stateMutability": "view",
      "type": "function"
    },
    {
      "inputs": [],
      "name": "preICOStart",
      "outputs": [
        {
          "internalType": "uint256",
          "name": "",
          "type": "uint256"
        }
      ],
      "stateMutability": "view",
      "type": "function"
    },
    {
      "inputs": [],
      "name": "purchase_1",
      "outputs": [
        {
          "internalType": "uint256",
          "name": "",
          "type": "uint256"
        }
      ],
      "stateMutability": "view",
      "type": "function"
    },
    {
      "inputs": [],
      "name": "purchase_2",
      "outputs": [
        {
          "internalType": "uint256",
          "name": "",
          "type": "uint256"
        }
      ],
      "stateMutability": "view",
      "type": "function"
    },
    {
      "inputs": [],
      "name": "purchase_3",
      "outputs": [
        {
          "internalType": "uint256",
          "name": "",
          "type": "uint256"
        }
      ],
      "stateMutability": "view",
      "type": "function"
    },
    {
      "inputs": [
        {
          "internalType": "bytes32",
          "name": "role",
          "type": "bytes32"
        },
        {
          "internalType": "address",
          "name": "account",
          "type": "address"
        }
      ],
      "name": "renounceRole",
      "outputs": [],
      "stateMutability": "nonpayable",
      "type": "function"
    },
    {
      "inputs": [
        {
          "internalType": "bytes32",
          "name": "role",
          "type": "bytes32"
        },
        {
          "internalType": "address",
          "name": "account",
          "type": "address"
        }
      ],
      "name": "revokeRole",
      "outputs": [],
      "stateMutability": "nonpayable",
      "type": "function"
    },
    {
      "inputs": [],
      "name": "sync",
      "outputs": [],
      "stateMutability": "nonpayable",
      "type": "function"
    },
    {
      "inputs": [],
      "name": "tokenBalance",
      "outputs": [
        {
          "internalType": "uint256",
          "name": "",
          "type": "uint256"
        }
      ],
      "stateMutability": "view",
      "type": "function"
    },
    {
      "inputs": [
        {
          "internalType": "uint256",
          "name": "_precision",
          "type": "uint256"
        }
      ],
      "name": "updatePrecision",
      "outputs": [],
      "stateMutability": "nonpayable",
      "type": "function"
    },
    {
      "inputs": [
        {
          "internalType": "uint256",
          "name": "_rate",
          "type": "uint256"
        }
      ],
      "name": "updateRateICO",
      "outputs": [],
      "stateMutability": "nonpayable",
      "type": "function"
    },
    {
      "inputs": [
        {
          "internalType": "uint256",
          "name": "_rate",
          "type": "uint256"
        }
      ],
      "name": "updateRatePreICO",
      "outputs": [],
      "stateMutability": "nonpayable",
      "type": "function"
    },
    {
      "stateMutability": "payable",
      "type": "receive"
    }
  ],
  "bytecode": "0x6080604052614e20600b55620186a0600c5562030d40600d55620f42406012553480156200002c57600080fd5b5060405162001d5938038062001d59833981810160405260c08110156200005257600080fd5b508051602082015160408301516060840151608085015160a090950151939492939192909162000084600033620001c0565b6200009f60008051602062001d3983398151915233620001c0565b620000ba60008051602062001d1983398151915233620001c0565b620000d560008051602062001cf983398151915233620001c0565b620000f160008051602062001d398339815191526000620001d0565b6200011b60008051602062001d1983398151915260008051602062001d39833981519152620001d0565b6200014560008051602062001cf983398151915260008051602062001d39833981519152620001d0565b6003829055600481905560058390556200016f836212750062000222602090811b6200124917901c565b6006555050624f1a00600755506276a700600855629e340060095562ed4e00600a55600f80546001600160a01b0319166001600160a01b039290921691909117905560109190915560115562000381565b620001cc828262000286565b5050565b600082815260208190526040808220600201549051839285917fbd79b86ffe0ab8e8776151514217cd7cacd52c909f66475c3af44e129f0b00ff9190a460009182526020829052604090912060020155565b6000828201838110156200027d576040805162461bcd60e51b815260206004820152601b60248201527f536166654d6174683a206164646974696f6e206f766572666c6f770000000000604482015290519081900360640190fd5b90505b92915050565b600082815260208181526040909120620002ab918390620012a3620002ff821b17901c565b15620001cc57620002bb62000316565b6001600160a01b0316816001600160a01b0316837f2f8788117e7eff1d82e926ec794901d17c78024a50270940304540a733656f0d60405160405180910390a45050565b60006200027d836001600160a01b0384166200031a565b3390565b600062000328838362000369565b620003605750815460018181018455600084815260208082209093018490558454848252828601909352604090209190915562000280565b50600062000280565b60009081526001919091016020526040902054151590565b61196880620003916000396000f3fe6080604052600436106102295760003560e01c80638214237011610123578063bfa8e476116100ab578063d98889501161006f578063d988895014610721578063e1828f7014610736578063e4a888461461074b578063eb49a89014610760578063fff6cae91461078a57610275565b8063bfa8e47614610661578063c4d66de814610676578063ca15c873146106a9578063d22c0f4d146106d3578063d547741f146106e857610275565b8063996fa0dc116100f2578063996fa0dc146105d75780639e1a4d19146105ec578063a217fddf14610601578063a35889ea14610616578063a3dd26191461062b57610275565b806382142370146104f95780639010d07c1461054557806391d14854146105755780639827e396146105c257610275565b8063465a189e116101b15780635ebc20e9116101755780635ebc20e9146104745780635f8164d61461048957806375b238fc146104ba5780637abf3302146104cf5780637d4c487e146104e457610275565b8063465a189e146103d257806347e7ef24146103e75780634d294c41146104205780634e39f3de1461043557806356157f031461044a57610275565b80632f2ff15d116101f85780632f2ff15d1461030c578063353efdcf1461034557806336568abe1461035a578063379607f5146103935780633964e26b146103bd57610275565b8063150cd7481461027a578063248a9ca3146102a157806325d14d8e146102cb5780632a153838146102e057610275565b3661027557600f546040516001600160a01b03909116903480156108fc02916000818181858888f19350505050158015610267573d6000803e3d6000fd5b50610272343361079f565b50005b600080fd5b34801561028657600080fd5b5061028f6109bb565b60408051918252519081900360200190f35b3480156102ad57600080fd5b5061028f600480360360208110156102c457600080fd5b50356109c1565b3480156102d757600080fd5b5061028f6109d6565b3480156102ec57600080fd5b5061030a6004803603602081101561030357600080fd5b50356109dc565b005b34801561031857600080fd5b5061030a6004803603604081101561032f57600080fd5b50803590602001356001600160a01b0316610a46565b34801561035157600080fd5b5061028f610ab2565b34801561036657600080fd5b5061030a6004803603604081101561037d57600080fd5b50803590602001356001600160a01b0316610ad6565b34801561039f57600080fd5b5061030a600480360360208110156103b657600080fd5b5035610b37565b3480156103c957600080fd5b5061028f610c46565b3480156103de57600080fd5b5061028f610c4c565b3480156103f357600080fd5b5061030a6004803603604081101561040a57600080fd5b506001600160a01b038135169060200135610c52565b34801561042c57600080fd5b5061028f610cc6565b34801561044157600080fd5b5061028f610ccc565b34801561045657600080fd5b5061030a6004803603602081101561046d57600080fd5b5035610cd2565b34801561048057600080fd5b5061028f610d2a565b34801561049557600080fd5b5061049e610d30565b604080516001600160a01b039092168252519081900360200190f35b3480156104c657600080fd5b5061028f610d3f565b3480156104db57600080fd5b5061028f610d51565b3480156104f057600080fd5b5061028f610d57565b34801561050557600080fd5b5061052c6004803603602081101561051c57600080fd5b50356001600160a01b0316610d5d565b6040805192835260208301919091528051918290030190f35b34801561055157600080fd5b5061049e6004803603604081101561056857600080fd5b5080359060200135610d76565b34801561058157600080fd5b506105ae6004803603604081101561059857600080fd5b50803590602001356001600160a01b0316610d95565b604080519115158252519081900360200190f35b3480156105ce57600080fd5b5061028f610dad565b3480156105e357600080fd5b5061028f610dd1565b3480156105f857600080fd5b5061028f610dd7565b34801561060d57600080fd5b5061028f610ddd565b34801561062257600080fd5b5061028f610de2565b34801561063757600080fd5b50610640610de8565b6040518082600381111561065057fe5b815260200191505060405180910390f35b34801561066d57600080fd5b5061028f610df8565b34801561068257600080fd5b5061030a6004803603602081101561069957600080fd5b50356001600160a01b0316610dfe565b3480156106b557600080fd5b5061028f600480360360208110156106cc57600080fd5b5035610ebb565b3480156106df57600080fd5b5061028f610ed2565b3480156106f457600080fd5b5061030a6004803603604081101561070b57600080fd5b50803590602001356001600160a01b0316610ed8565b34801561072d57600080fd5b5061028f610f31565b34801561074257600080fd5b5061028f610f37565b34801561075757600080fd5b5061028f610f3d565b34801561076c57600080fd5b5061030a6004803603602081101561078357600080fd5b5035611110565b34801561079657600080fd5b5061030a61117a565b6000806107aa6112b8565b905060018160038111156107ba57fe5b14806107d1575060028160038111156107cf57fe5b145b61080c5760405162461bcd60e51b81526004018080602001828103825260268152602001806118966026913960400191505060405180910390fd5b600181600381111561081a57fe5b14156108c2578360045410156108615760405162461bcd60e51b815260040180806020018281038252602c815260200180611727602c913960400191505060405180910390fd5b61088260125461087c6011548761131190919063ffffffff16565b9061136a565b6001600160a01b0384166000908152600e602052604090208054919350906108aa9084611249565b81556004546108b990846113d1565b600455506109b3565b8360035410156109035760405162461bcd60e51b81526004018080602001828103825260288152602001806118dc6028913960400191505060405180910390fd5b61091e60125461087c6010548761131190919063ffffffff16565b6013546040805163a9059cbb60e01b81526001600160a01b03878116600483015260248201859052915193955091169163a9059cbb916044808201926020929091908290030181600087803b15801561097657600080fd5b505af115801561098a573d6000803e3d6000fd5b505050506040513d60208110156109a057600080fd5b50506003546109af90836113d1565b6003555b505b92915050565b60025481565b60009081526020819052604090206002015490565b60065481565b610a067faa73b231ad0ae3ab638a05c935438963b3f1bf6757690c17521f2710bc2b676133610d95565b610a415760405162461bcd60e51b81526004018080602001828103825260238152602001806117ce6023913960400191505060405180910390fd5b601155565b600082815260208190526040902060020154610a6990610a6461142e565b610d95565b610aa45760405162461bcd60e51b815260040180806020018281038252602f8152602001806116f8602f913960400191505060405180910390fd5b610aae8282611432565b5050565b7f2561bf26f818282a3be40719542054d2173eb0d38539e8a8d3cff22f29fd238481565b610ade61142e565b6001600160a01b0316816001600160a01b031614610b2d5760405162461bcd60e51b815260040180806020018281038252602f815260200180611904602f913960400191505060405180910390fd5b610aae828261149b565b6000610b41610f3d565b905080821115610b825760405162461bcd60e51b815260040180806020018281038252603681526020018061183c6036913960400191505060405180910390fd5b336000908152600e6020526040902060010154610b9f9083611249565b336000908152600e6020526040902060010155600254610bbf9083611249565b6002556013546040805163a9059cbb60e01b81523360048201526024810185905290516001600160a01b039092169163a9059cbb916044808201926020929091908290030181600087803b158015610c1657600080fd5b505af1158015610c2a573d6000803e3d6000fd5b505050506040513d6020811015610c4057600080fd5b50505050565b60115481565b600b5481565b610c7c7f2561bf26f818282a3be40719542054d2173eb0d38539e8a8d3cff22f29fd238433610d95565b610cb75760405162461bcd60e51b81526004018080602001828103825260278152602001806117a76027913960400191505060405180910390fd5b610cc1818361079f565b505050565b60125481565b60035481565b610cea6000805160206118bc83398151915233610d95565b610d255760405162461bcd60e51b81526004018080602001828103825260248152602001806117836024913960400191505060405180910390fd5b601255565b60095481565b6013546001600160a01b031681565b6000805160206118bc83398151915281565b60105481565b600c5481565b600e602052600090815260409020805460019091015482565b6000828152602081905260408120610d8e9083611504565b9392505050565b6000828152602081905260408120610d8e9083611510565b7faa73b231ad0ae3ab638a05c935438963b3f1bf6757690c17521f2710bc2b676181565b60055481565b60015481565b600081565b60085481565b6000610df26112b8565b90505b90565b600a5481565b610e166000805160206118bc83398151915233610d95565b610e515760405162461bcd60e51b81526004018080602001828103825260248152602001806118726024913960400191505060405180910390fd5b6013546001600160a01b031615610e995760405162461bcd60e51b815260040180806020018281038252602a8152602001806117f1602a913960400191505060405180910390fd5b601380546001600160a01b0319166001600160a01b0392909216919091179055565b60008181526020819052604081206109b590611525565b60045481565b600082815260208190526040902060020154610ef690610a6461142e565b610b2d5760405162461bcd60e51b81526004018080602001828103825260308152602001806117536030913960400191505060405180910390fd5b60075481565b600d5481565b336000908152600e6020526040812080548291901580610f6a575060018101548154610f68916113d1565b155b15610f7a57600092505050610df5565b600b54610f8f90670de0b6b3a7640000611311565b81541015610fa1576007549150611053565b600b54610fb690670de0b6b3a7640000611311565b815410801590610fda5750600c54610fd690670de0b6b3a7640000611311565b8154105b15610fe9576008549150611053565b600c54610ffe90670de0b6b3a7640000611311565b8154108015906110225750600d5461101e90670de0b6b3a7640000611311565b8154105b15611031576009549150611053565b600d5461104690670de0b6b3a7640000611311565b81541061105357600a5491505b81611069600654426113d190919063ffffffff16565b111561110b57805461108390600a9061087c906004611311565b925061109a6007548361124990919063ffffffff16565b6006546110a89042906113d1565b11156110f25780546110c290600a9061087c906007611311565b92506110d96009548361124990919063ffffffff16565b6006546110e79042906113d1565b11156110f257805492505b60018101546111029084906113d1565b92505050610df5565b505090565b61113a7faa73b231ad0ae3ab638a05c935438963b3f1bf6757690c17521f2710bc2b676133610d95565b6111755760405162461bcd60e51b81526004018080602001828103825260238152602001806117ce6023913960400191505060405180910390fd5b601055565b6111926000805160206118bc83398151915233610d95565b6111cd5760405162461bcd60e51b81526004018080602001828103825260248152602001806118726024913960400191505060405180910390fd5b601354604080516370a0823160e01b815230600482015290516001600160a01b03909216916370a0823191602480820192602092909190829003018186803b15801561121857600080fd5b505afa15801561122c573d6000803e3d6000fd5b505050506040513d602081101561124257600080fd5b5051600155565b600082820183811015610d8e576040805162461bcd60e51b815260206004820152601b60248201527f536166654d6174683a206164646974696f6e206f766572666c6f770000000000604482015290519081900360640190fd5b6000610d8e836001600160a01b038416611530565b60006005544210156112cc57506000610df5565b60055442101580156112e057506006544211155b156112ed57506001610df5565b600654421180156112fe5750600154155b1561130b57506002610df5565b50600390565b600082611320575060006109b5565b8282028284828161132d57fe5b0414610d8e5760405162461bcd60e51b815260040180806020018281038252602181526020018061181b6021913960400191505060405180910390fd5b60008082116113c0576040805162461bcd60e51b815260206004820152601a60248201527f536166654d6174683a206469766973696f6e206279207a65726f000000000000604482015290519081900360640190fd5b8183816113c957fe5b049392505050565b600082821115611428576040805162461bcd60e51b815260206004820152601e60248201527f536166654d6174683a207375627472616374696f6e206f766572666c6f770000604482015290519081900360640190fd5b50900390565b3390565b600082815260208190526040902061144a90826112a3565b15610aae5761145761142e565b6001600160a01b0316816001600160a01b0316837f2f8788117e7eff1d82e926ec794901d17c78024a50270940304540a733656f0d60405160405180910390a45050565b60008281526020819052604090206114b3908261157a565b15610aae576114c061142e565b6001600160a01b0316816001600160a01b0316837ff6391f5c32d9c69d2a47ea670b442974b53935d1edc7fd64eb21e047a839171b60405160405180910390a45050565b6000610d8e838361158f565b6000610d8e836001600160a01b0384166115f3565b60006109b58261160b565b600061153c83836115f3565b611572575081546001818101845560008481526020808220909301849055845484825282860190935260409020919091556109b5565b5060006109b5565b6000610d8e836001600160a01b03841661160f565b815460009082106115d15760405162461bcd60e51b81526004018080602001828103825260228152602001806116d66022913960400191505060405180910390fd5b8260000182815481106115e057fe5b9060005260206000200154905092915050565b60009081526001919091016020526040902054151590565b5490565b600081815260018301602052604081205480156116cb578354600019808301919081019060009087908390811061164257fe5b906000526020600020015490508087600001848154811061165f57fe5b60009182526020808320909101929092558281526001898101909252604090209084019055865487908061168f57fe5b600190038181906000526020600020016000905590558660010160008781526020019081526020016000206000905560019450505050506109b5565b60009150506109b556fe456e756d657261626c655365743a20696e646578206f7574206f6620626f756e6473416363657373436f6e74726f6c3a2073656e646572206d75737420626520616e2061646d696e20746f206772616e7456454543726f776473616c653a205072652d49434f206c696d697420686173206265656e2065786565646564416363657373436f6e74726f6c3a2073656e646572206d75737420626520616e2061646d696e20746f207265766f6b6556454543726f776473616c653a2043616c6c6572206973206e6f7420616e2061646d696e56454543726f776473616c653a2063616c6c6572206973206e6f742061206465706f7369746f7256454543726f776473616c653a2043616c6c6572206973206e6f74206120726174657256454543726f776473616c653a20636f6e747261637420616c726561647920696e697469616c697a6564536166654d6174683a206d756c7469706c69636174696f6e206f766572666c6f7756454543726f776473616c653a204e6f7420656e6f75676820746f6b656e732061726520617661696c61626c6520746f20636c61696d56454543726f776473616c653a2063616c6c6572206973206e6f7420616e2061646d696e56454543726f776473616c653a2049434f206973206e6f7420617661696c61626c6520796574a49807205ce4d355092ef5a8a18f56e8913cf4a201fbe287825b095693c2177556454543726f776473616c653a2049434f206c696d697420686173206265656e2065786565646564416363657373436f6e74726f6c3a2063616e206f6e6c792072656e6f756e636520726f6c657320666f722073656c66a2646970667358221220f0135adc1578b05c2ea17223de8cf104744951006a37e472c8afe502b4f3db1064736f6c634300060c00332561bf26f818282a3be40719542054d2173eb0d38539e8a8d3cff22f29fd2384aa73b231ad0ae3ab638a05c935438963b3f1bf6757690c17521f2710bc2b6761a49807205ce4d355092ef5a8a18f56e8913cf4a201fbe287825b095693c21775",
  "linkReferences": {},
  "deployedLinkReferences": {}
}