{
  "_format": "hh-sol-artifact-1",
  "contractName": "VEEToken",
  "sourceName": "contracts/VEEToken.sol",
  "abi": [
    {
      "inputs": [
        {
          "internalType": "string",
          "name": "name",
          "type": "string"
        },
        {
          "internalType": "string",
          "name": "symbol",
          "type": "string"
        },
        {
          "internalType": "uint256",
          "name": "cap",
          "type": "uint256"
        },
        {
          "internalType": "address",
          "name": "Crowdsale",
          "type": "address"
        },
        {
          "internalType": "address",
          "name": "Investors",
          "type": "address"
        },
        {
          "internalType": "address",
          "name": "Rewards",
          "type": "address"
        },
        {
          "internalType": "address",
          "name": "Team",
          "type": "address"
        },
        {
          "internalType": "address",
          "name": "Liquidity",
          "type": "address"
        },
        {
          "internalType": "uint256",
          "name": "volume_preICO",
          "type": "uint256"
        },
        {
          "internalType": "uint256",
          "name": "volume_crowdsale",
          "type": "uint256"
        },
        {
          "internalType": "uint256",
          "name": "volume_investors",
          "type": "uint256"
        },
        {
          "internalType": "uint256",
          "name": "volume_rewards",
          "type": "uint256"
        },
        {
          "internalType": "uint256",
          "name": "volume_team",
          "type": "uint256"
        },
        {
          "internalType": "uint256",
          "name": "volume_liquidity",
          "type": "uint256"
        }
      ],
      "stateMutability": "nonpayable",
      "type": "constructor"
    },
    {
      "anonymous": false,
      "inputs": [
        {
          "indexed": true,
          "internalType": "address",
          "name": "owner",
          "type": "address"
        },
        {
          "indexed": true,
          "internalType": "address",
          "name": "spender",
          "type": "address"
        },
        {
          "indexed": false,
          "internalType": "uint256",
          "name": "value",
          "type": "uint256"
        }
      ],
      "name": "Approval",
      "type": "event"
    },
    {
      "anonymous": false,
      "inputs": [
        {
          "indexed": true,
          "internalType": "bytes32",
          "name": "role",
          "type": "bytes32"
        },
        {
          "indexed": true,
          "internalType": "bytes32",
          "name": "previousAdminRole",
          "type": "bytes32"
        },
        {
          "indexed": true,
          "internalType": "bytes32",
          "name": "newAdminRole",
          "type": "bytes32"
        }
      ],
      "name": "RoleAdminChanged",
      "type": "event"
    },
    {
      "anonymous": false,
      "inputs": [
        {
          "indexed": true,
          "internalType": "bytes32",
          "name": "role",
          "type": "bytes32"
        },
        {
          "indexed": true,
          "internalType": "address",
          "name": "account",
          "type": "address"
        },
        {
          "indexed": true,
          "internalType": "address",
          "name": "sender",
          "type": "address"
        }
      ],
      "name": "RoleGranted",
      "type": "event"
    },
    {
      "anonymous": false,
      "inputs": [
        {
          "indexed": true,
          "internalType": "bytes32",
          "name": "role",
          "type": "bytes32"
        },
        {
          "indexed": true,
          "internalType": "address",
          "name": "account",
          "type": "address"
        },
        {
          "indexed": true,
          "internalType": "address",
          "name": "sender",
          "type": "address"
        }
      ],
      "name": "RoleRevoked",
      "type": "event"
    },
    {
      "anonymous": false,
      "inputs": [
        {
          "indexed": true,
          "internalType": "address",
          "name": "from",
          "type": "address"
        },
        {
          "indexed": true,
          "internalType": "address",
          "name": "to",
          "type": "address"
        },
        {
          "indexed": false,
          "internalType": "uint256",
          "name": "value",
          "type": "uint256"
        }
      ],
      "name": "Transfer",
      "type": "event"
    },
    {
      "inputs": [],
      "name": "ADMIN_ROLE",
      "outputs": [
        {
          "internalType": "bytes32",
          "name": "",
          "type": "bytes32"
        }
      ],
      "stateMutability": "view",
      "type": "function"
    },
    {
      "inputs": [],
      "name": "DEFAULT_ADMIN_ROLE",
      "outputs": [
        {
          "internalType": "bytes32",
          "name": "",
          "type": "bytes32"
        }
      ],
      "stateMutability": "view",
      "type": "function"
    },
    {
      "inputs": [
        {
          "internalType": "address",
          "name": "owner",
          "type": "address"
        },
        {
          "internalType": "address",
          "name": "spender",
          "type": "address"
        }
      ],
      "name": "allowance",
      "outputs": [
        {
          "internalType": "uint256",
          "name": "",
          "type": "uint256"
        }
      ],
      "stateMutability": "view",
      "type": "function"
    },
    {
      "inputs": [
        {
          "internalType": "address",
          "name": "spender",
          "type": "address"
        },
        {
          "internalType": "uint256",
          "name": "amount",
          "type": "uint256"
        }
      ],
      "name": "approve",
      "outputs": [
        {
          "internalType": "bool",
          "name": "",
          "type": "bool"
        }
      ],
      "stateMutability": "nonpayable",
      "type": "function"
    },
    {
      "inputs": [
        {
          "internalType": "address",
          "name": "account",
          "type": "address"
        }
      ],
      "name": "balanceOf",
      "outputs": [
        {
          "internalType": "uint256",
          "name": "",
          "type": "uint256"
        }
      ],
      "stateMutability": "view",
      "type": "function"
    },
    {
      "inputs": [],
      "name": "cap",
      "outputs": [
        {
          "internalType": "uint256",
          "name": "",
          "type": "uint256"
        }
      ],
      "stateMutability": "view",
      "type": "function"
    },
    {
      "inputs": [],
      "name": "decimals",
      "outputs": [
        {
          "internalType": "uint8",
          "name": "",
          "type": "uint8"
        }
      ],
      "stateMutability": "view",
      "type": "function"
    },
    {
      "inputs": [
        {
          "internalType": "address",
          "name": "spender",
          "type": "address"
        },
        {
          "internalType": "uint256",
          "name": "subtractedValue",
          "type": "uint256"
        }
      ],
      "name": "decreaseAllowance",
      "outputs": [
        {
          "internalType": "bool",
          "name": "",
          "type": "bool"
        }
      ],
      "stateMutability": "nonpayable",
      "type": "function"
    },
    {
      "inputs": [
        {
          "internalType": "bytes32",
          "name": "role",
          "type": "bytes32"
        }
      ],
      "name": "getRoleAdmin",
      "outputs": [
        {
          "internalType": "bytes32",
          "name": "",
          "type": "bytes32"
        }
      ],
      "stateMutability": "view",
      "type": "function"
    },
    {
      "inputs": [
        {
          "internalType": "bytes32",
          "name": "role",
          "type": "bytes32"
        },
        {
          "internalType": "uint256",
          "name": "index",
          "type": "uint256"
        }
      ],
      "name": "getRoleMember",
      "outputs": [
        {
          "internalType": "address",
          "name": "",
          "type": "address"
        }
      ],
      "stateMutability": "view",
      "type": "function"
    },
    {
      "inputs": [
        {
          "internalType": "bytes32",
          "name": "role",
          "type": "bytes32"
        }
      ],
      "name": "getRoleMemberCount",
      "outputs": [
        {
          "internalType": "uint256",
          "name": "",
          "type": "uint256"
        }
      ],
      "stateMutability": "view",
      "type": "function"
    },
    {
      "inputs": [
        {
          "internalType": "bytes32",
          "name": "role",
          "type": "bytes32"
        },
        {
          "internalType": "address",
          "name": "account",
          "type": "address"
        }
      ],
      "name": "grantRole",
      "outputs": [],
      "stateMutability": "nonpayable",
      "type": "function"
    },
    {
      "inputs": [
        {
          "internalType": "bytes32",
          "name": "role",
          "type": "bytes32"
        },
        {
          "internalType": "address",
          "name": "account",
          "type": "address"
        }
      ],
      "name": "hasRole",
      "outputs": [
        {
          "internalType": "bool",
          "name": "",
          "type": "bool"
        }
      ],
      "stateMutability": "view",
      "type": "function"
    },
    {
      "inputs": [
        {
          "internalType": "address",
          "name": "spender",
          "type": "address"
        },
        {
          "internalType": "uint256",
          "name": "addedValue",
          "type": "uint256"
        }
      ],
      "name": "increaseAllowance",
      "outputs": [
        {
          "internalType": "bool",
          "name": "",
          "type": "bool"
        }
      ],
      "stateMutability": "nonpayable",
      "type": "function"
    },
    {
      "inputs": [],
      "name": "name",
      "outputs": [
        {
          "internalType": "string",
          "name": "",
          "type": "string"
        }
      ],
      "stateMutability": "view",
      "type": "function"
    },
    {
      "inputs": [
        {
          "internalType": "bytes32",
          "name": "role",
          "type": "bytes32"
        },
        {
          "internalType": "address",
          "name": "account",
          "type": "address"
        }
      ],
      "name": "renounceRole",
      "outputs": [],
      "stateMutability": "nonpayable",
      "type": "function"
    },
    {
      "inputs": [
        {
          "internalType": "bytes32",
          "name": "role",
          "type": "bytes32"
        },
        {
          "internalType": "address",
          "name": "account",
          "type": "address"
        }
      ],
      "name": "revokeRole",
      "outputs": [],
      "stateMutability": "nonpayable",
      "type": "function"
    },
    {
      "inputs": [],
      "name": "symbol",
      "outputs": [
        {
          "internalType": "string",
          "name": "",
          "type": "string"
        }
      ],
      "stateMutability": "view",
      "type": "function"
    },
    {
      "inputs": [],
      "name": "totalSupply",
      "outputs": [
        {
          "internalType": "uint256",
          "name": "",
          "type": "uint256"
        }
      ],
      "stateMutability": "view",
      "type": "function"
    },
    {
      "inputs": [
        {
          "internalType": "address",
          "name": "recipient",
          "type": "address"
        },
        {
          "internalType": "uint256",
          "name": "amount",
          "type": "uint256"
        }
      ],
      "name": "transfer",
      "outputs": [
        {
          "internalType": "bool",
          "name": "",
          "type": "bool"
        }
      ],
      "stateMutability": "nonpayable",
      "type": "function"
    },
    {
      "inputs": [
        {
          "internalType": "address",
          "name": "sender",
          "type": "address"
        },
        {
          "internalType": "address",
          "name": "recipient",
          "type": "address"
        },
        {
          "internalType": "uint256",
          "name": "amount",
          "type": "uint256"
        }
      ],
      "name": "transferFrom",
      "outputs": [
        {
          "internalType": "bool",
          "name": "",
          "type": "bool"
        }
      ],
      "stateMutability": "nonpayable",
      "type": "function"
    }
  ],
  "bytecode": "0x60806040523480156200001157600080fd5b50604051620017f6380380620017f683398181016040526101c08110156200003857600080fd5b81019080805160405193929190846401000000008211156200005957600080fd5b9083019060208201858111156200006f57600080fd5b82516401000000008111828201881017156200008a57600080fd5b82525081516020918201929091019080838360005b83811015620000b95781810151838201526020016200009f565b50505050905090810190601f168015620000e75780820380516001836020036101000a031916815260200191505b50604052602001805160405193929190846401000000008211156200010b57600080fd5b9083019060208201858111156200012157600080fd5b82516401000000008111828201881017156200013c57600080fd5b82525081516020918201929091019080838360005b838110156200016b57818101518382015260200162000151565b50505050905090810190601f168015620001995780820380516001836020036101000a031916815260200191505b506040526020018051906020019092919080519060200190929190805190602001909291908051906020019092919080519060200190929190805190602001909291908051906020019092919080519060200190929190805190602001909291908051906020019092919080519060200190929190805190602001909291905050508b8e8e816003908051906020019062000236929190620005dc565b5080516200024c906004906020840190620005dc565b50506005805460ff191660121790555080620002af576040805162461bcd60e51b815260206004820152601560248201527f45524332304361707065643a2063617020697320300000000000000000000000604482015290519081900360640190fd5b600655620002df7fa49807205ce4d355092ef5a8a18f56e8913cf4a201fbe287825b095693c21775600062000348565b620003048b620002fe88886200039a60201b620008fd1790919060201c565b620003fc565b620003108a85620003fc565b6200031c8984620003fc565b620003288883620003fc565b620003348782620003fc565b505050505050505050505050505062000678565b600082815260076020526040808220600201549051839285917fbd79b86ffe0ab8e8776151514217cd7cacd52c909f66475c3af44e129f0b00ff9190a460009182526007602052604090912060020155565b600082820183811015620003f5576040805162461bcd60e51b815260206004820152601b60248201527f536166654d6174683a206164646974696f6e206f766572666c6f770000000000604482015290519081900360640190fd5b9392505050565b6001600160a01b03821662000458576040805162461bcd60e51b815260206004820152601f60248201527f45524332303a206d696e7420746f20746865207a65726f206164647265737300604482015290519081900360640190fd5b62000466600083836200050b565b62000482816002546200039a60201b620008fd1790919060201c565b6002556001600160a01b03821660009081526020818152604090912054620004b5918390620008fd6200039a821b17901c565b6001600160a01b0383166000818152602081815260408083209490945583518581529351929391927fddf252ad1be2c89b69c2b068fc378daa952ba7f163c4a11628f55a4df523b3ef9281900390910190a35050565b620005238383836200052860201b620009571760201c565b505050565b620005408383836200052360201b620009dd1760201c565b6001600160a01b038316620005235762000559620005d0565b6200057c8262000568620005d6565b6200039a60201b620008fd1790919060201c565b111562000523576040805162461bcd60e51b815260206004820152601960248201527f45524332304361707065643a2063617020657863656564656400000000000000604482015290519081900360640190fd5b60065490565b60025490565b828054600181600116156101000203166002900490600052602060002090601f016020900481019282601f106200061f57805160ff19168380011785556200064f565b828001600101855582156200064f579182015b828111156200064f57825182559160200191906001019062000632565b506200065d92915062000661565b5090565b5b808211156200065d576000815560010162000662565b61116e80620006886000396000f3fe608060405234801561001057600080fd5b50600436106101375760003560e01c806370a08231116100b8578063a217fddf1161007c578063a217fddf146103b3578063a457c2d7146103bb578063a9059cbb146103e7578063ca15c87314610413578063d547741f14610430578063dd62ed3e1461045c57610137565b806370a082311461031257806375b238fc146103385780639010d07c1461034057806391d148541461037f57806395d89b41146103ab57610137565b80632f2ff15d116100ff5780632f2ff15d14610266578063313ce56714610294578063355274ea146102b257806336568abe146102ba57806339509351146102e657610137565b806306fdde031461013c578063095ea7b3146101b957806318160ddd146101f957806323b872dd14610213578063248a9ca314610249575b600080fd5b61014461048a565b6040805160208082528351818301528351919283929083019185019080838360005b8381101561017e578181015183820152602001610166565b50505050905090810190601f1680156101ab5780820380516001836020036101000a031916815260200191505b509250505060405180910390f35b6101e5600480360360408110156101cf57600080fd5b506001600160a01b038135169060200135610520565b604080519115158252519081900360200190f35b61020161053e565b60408051918252519081900360200190f35b6101e56004803603606081101561022957600080fd5b506001600160a01b03813581169160208101359091169060400135610544565b6102016004803603602081101561025f57600080fd5b50356105cb565b6102926004803603604081101561027c57600080fd5b50803590602001356001600160a01b03166105e0565b005b61029c61064c565b6040805160ff9092168252519081900360200190f35b610201610655565b610292600480360360408110156102d057600080fd5b50803590602001356001600160a01b031661065b565b6101e5600480360360408110156102fc57600080fd5b506001600160a01b0381351690602001356106bc565b6102016004803603602081101561032857600080fd5b50356001600160a01b031661070a565b610201610725565b6103636004803603604081101561035657600080fd5b5080359060200135610749565b604080516001600160a01b039092168252519081900360200190f35b6101e56004803603604081101561039557600080fd5b50803590602001356001600160a01b0316610768565b610144610780565b6102016107e1565b6101e5600480360360408110156103d157600080fd5b506001600160a01b0381351690602001356107e6565b6101e5600480360360408110156103fd57600080fd5b506001600160a01b03813516906020013561084e565b6102016004803603602081101561042957600080fd5b5035610862565b6102926004803603604081101561044657600080fd5b50803590602001356001600160a01b0316610879565b6102016004803603604081101561047257600080fd5b506001600160a01b03813581169160200135166108d2565b60038054604080516020601f60026000196101006001881615020190951694909404938401819004810282018101909252828152606093909290918301828280156105165780601f106104eb57610100808354040283529160200191610516565b820191906000526020600020905b8154815290600101906020018083116104f957829003601f168201915b5050505050905090565b600061053461052d6109e2565b84846109e6565b5060015b92915050565b60025490565b6000610551848484610ad2565b6105c18461055d6109e2565b6105bc85604051806060016040528060288152602001611074602891396001600160a01b038a1660009081526001602052604081209061059b6109e2565b6001600160a01b031681526020810191909152604001600020549190610c2d565b6109e6565b5060019392505050565b60009081526007602052604090206002015490565b600082815260076020526040902060020154610603906105fe6109e2565b610768565b61063e5760405162461bcd60e51b815260040180806020018281038252602f815260200180610fcd602f913960400191505060405180910390fd5b6106488282610cc4565b5050565b60055460ff1690565b60065490565b6106636109e2565b6001600160a01b0316816001600160a01b0316146106b25760405162461bcd60e51b815260040180806020018281038252602f81526020018061110a602f913960400191505060405180910390fd5b6106488282610d2d565b60006105346106c96109e2565b846105bc85600160006106da6109e2565b6001600160a01b03908116825260208083019390935260409182016000908120918c1681529252902054906108fd565b6001600160a01b031660009081526020819052604090205490565b7fa49807205ce4d355092ef5a8a18f56e8913cf4a201fbe287825b095693c2177581565b60008281526007602052604081206107619083610d96565b9392505050565b60008281526007602052604081206107619083610da2565b60048054604080516020601f60026000196101006001881615020190951694909404938401819004810282018101909252828152606093909290918301828280156105165780601f106104eb57610100808354040283529160200191610516565b600081565b60006105346107f36109e2565b846105bc856040518060600160405280602581526020016110e5602591396001600061081d6109e2565b6001600160a01b03908116825260208083019390935260409182016000908120918d16815292529020549190610c2d565b600061053461085b6109e2565b8484610ad2565b600081815260076020526040812061053890610db7565b600082815260076020526040902060020154610897906105fe6109e2565b6106b25760405162461bcd60e51b81526004018080602001828103825260308152602001806110446030913960400191505060405180910390fd5b6001600160a01b03918216600090815260016020908152604080832093909416825291909152205490565b600082820183811015610761576040805162461bcd60e51b815260206004820152601b60248201527f536166654d6174683a206164646974696f6e206f766572666c6f770000000000604482015290519081900360640190fd5b6109628383836109dd565b6001600160a01b0383166109dd57610978610655565b61098a8261098461053e565b906108fd565b11156109dd576040805162461bcd60e51b815260206004820152601960248201527f45524332304361707065643a2063617020657863656564656400000000000000604482015290519081900360640190fd5b505050565b3390565b6001600160a01b038316610a2b5760405162461bcd60e51b81526004018080602001828103825260248152602001806110c16024913960400191505060405180910390fd5b6001600160a01b038216610a705760405162461bcd60e51b8152600401808060200182810382526022815260200180610ffc6022913960400191505060405180910390fd5b6001600160a01b03808416600081815260016020908152604080832094871680845294825291829020859055815185815291517f8c5be1e5ebec7d5bd14f71427d1e84f3dd0314c0f7b2291e5b200ac8c7c3b9259281900390910190a3505050565b6001600160a01b038316610b175760405162461bcd60e51b815260040180806020018281038252602581526020018061109c6025913960400191505060405180910390fd5b6001600160a01b038216610b5c5760405162461bcd60e51b8152600401808060200182810382526023815260200180610faa6023913960400191505060405180910390fd5b610b67838383610dc2565b610ba48160405180606001604052806026815260200161101e602691396001600160a01b0386166000908152602081905260409020549190610c2d565b6001600160a01b038085166000908152602081905260408082209390935590841681522054610bd390826108fd565b6001600160a01b038084166000818152602081815260409182902094909455805185815290519193928716927fddf252ad1be2c89b69c2b068fc378daa952ba7f163c4a11628f55a4df523b3ef92918290030190a3505050565b60008184841115610cbc5760405162461bcd60e51b81526004018080602001828103825283818151815260200191508051906020019080838360005b83811015610c81578181015183820152602001610c69565b50505050905090810190601f168015610cae5780820380516001836020036101000a031916815260200191505b509250505060405180910390fd5b505050900390565b6000828152600760205260409020610cdc9082610dcd565b1561064857610ce96109e2565b6001600160a01b0316816001600160a01b0316837f2f8788117e7eff1d82e926ec794901d17c78024a50270940304540a733656f0d60405160405180910390a45050565b6000828152600760205260409020610d459082610de2565b1561064857610d526109e2565b6001600160a01b0316816001600160a01b0316837ff6391f5c32d9c69d2a47ea670b442974b53935d1edc7fd64eb21e047a839171b60405160405180910390a45050565b60006107618383610df7565b6000610761836001600160a01b038416610e5b565b600061053882610e73565b6109dd838383610957565b6000610761836001600160a01b038416610e77565b6000610761836001600160a01b038416610ec1565b81546000908210610e395760405162461bcd60e51b8152600401808060200182810382526022815260200180610f886022913960400191505060405180910390fd5b826000018281548110610e4857fe5b9060005260206000200154905092915050565b60009081526001919091016020526040902054151590565b5490565b6000610e838383610e5b565b610eb957508154600181810184556000848152602080822090930184905584548482528286019093526040902091909155610538565b506000610538565b60008181526001830160205260408120548015610f7d5783546000198083019190810190600090879083908110610ef457fe5b9060005260206000200154905080876000018481548110610f1157fe5b600091825260208083209091019290925582815260018981019092526040902090840190558654879080610f4157fe5b60019003818190600052602060002001600090559055866001016000878152602001908152602001600020600090556001945050505050610538565b600091505061053856fe456e756d657261626c655365743a20696e646578206f7574206f6620626f756e647345524332303a207472616e7366657220746f20746865207a65726f2061646472657373416363657373436f6e74726f6c3a2073656e646572206d75737420626520616e2061646d696e20746f206772616e7445524332303a20617070726f766520746f20746865207a65726f206164647265737345524332303a207472616e7366657220616d6f756e7420657863656564732062616c616e6365416363657373436f6e74726f6c3a2073656e646572206d75737420626520616e2061646d696e20746f207265766f6b6545524332303a207472616e7366657220616d6f756e74206578636565647320616c6c6f77616e636545524332303a207472616e736665722066726f6d20746865207a65726f206164647265737345524332303a20617070726f76652066726f6d20746865207a65726f206164647265737345524332303a2064656372656173656420616c6c6f77616e63652062656c6f77207a65726f416363657373436f6e74726f6c3a2063616e206f6e6c792072656e6f756e636520726f6c657320666f722073656c66a26469706673582212201690841197684a006b84646a0e1907a11a9572b9291e57aa215a199cd6e97b8964736f6c634300060c0033",
  "linkReferences": {},
  "deployedLinkReferences": {}
}